:100000000C9463000C948B000C948B000C94BF0335
:100010000C94BF030C94BF030C948B000C948B00C6
:100020000C948B000C948B000C948B000C948B0024
:100030000C948B000C94A7060C948B000C948B00F2
:100040000C9475030C948B000C94DB080C94B5088D
:100050000C948B000C948B000C948B000C948B00F4
:100060000C944F040C948B00000000002400270027
:100070002A0000000008000201000003040700003D
:1000800000000000000000000000250028002B00F8
:1000900000000000230026002900040404040404D6
:1000A0000404020202020202030303030303010227
:1000B00004081020408001020408102001020408F6
:1000C0001020D5118E0B11241FBECFEFD8E0DEBF5C
:1000D000CDBF24E0A2E7B2E001C01D92AA36B2076C
:1000E000E1F712E0A0E0B1E0EAE5F0E302C005903C
:1000F0000D92A237B107D9F710E0C2E6D0E004C0F4
:100100002197FE010E940E16C136D107C9F70E9441
:100110009E0B0C9420180C9400003FB7F89480912B
:10012000FF0290910003A0910103B091020326B554
:10013000A89B05C02F3F19F00196A11DB11D3FBF1F
:10014000BA2FA92F982F8827820F911DA11DB11DAD
:10015000BC01CD0142E0660F771F881F991F4A95A9
:10016000D1F7089520910503309106032817390728
:1001700071F49091030380910403981741F0E0918A
:100180000303F0E0E254FD4F808190E008958FEF8B
:100190009FEF089508951F93CF93DF93DC015C9642
:1001A0002D913C915D972115310539F481E090E066
:1001B00013969C938E9312973DC05196ED91FC91AE
:1001C000529750969C915097892F80951FB75E96B5
:1001D0004C915E9741FB772770F941FD6095F8944B
:1001E0004081772311F0492B01C048234083E90166
:1001F0002197F1F748E0508160FF02C0592B01C000
:1002000058235083E9012197F1F76695415099F7FA
:10021000772321F090818923808303C08081982BEC
:1002200090831FBF5C968D919C915D970197F1F72C
:1002300021E030E0C901DF91CF911F910895209115
:100240000503309106032817390771F480910403E0
:100250002091030390E0805C9F4F821B910960E432
:1002600070E00E94B215089580E090E0089520911A
:1002700005033091060328173907B9F49091030359
:1002800080910403981789F0E0910303F0E0E254B1
:10029000FD4F80812091030330E02F5F3F4F2F738C
:1002A00033272093030390E008958FEF9FEF089585
:1002B00085ED8093BC008091BC0084FDFCCF109242
:1002C0005403089540919902262F30E0240F311DE8
:1002D00021323105DCF4209154032430C9F4FC01AF
:1002E00080E090E0861758F4309199022191DC016A
:1002F000A958BD4FA30FB11D2C930196F3CF809148
:100300009902680F6093990280E0089581E0089552
:1003100082E00895089581E090E030917602209186
:100320007502321710F480E090E091958195910963
:1003300008958091760290917502891730F48F5F4D
:100340008093760280E090E008958FEF9FEF08950C
:100350008091750290E020917602821B91090895A8
:10036000CF92DF92EF92FF920F931F93CF93DF9381
:100370007C01262F972F8A0180915503882391F0C5
:10038000C62FD72F6E01C40ED51ECC15DD0571F01A
:100390006991D701ED91FC910190F081E02DC701A9
:1003A0000995F3CF642F822F0E946201C801DF916B
:1003B000CF911F910F91FF90EF90DF90CF90089514
:1003C000CF93DF931F92CDB7DEB76983209155039A
:1003D0002223D1F020917803203240F021E030E058
:1003E000FC013383228380E090E015C080915603A6
:1003F000E82FF0E0E95AFC4F998190838F5F80935A
:1004000056038093780305C061E0CE0101960E94F7
:10041000620181E090E00F90DF91CF91089521E09B
:1004200001C0220F6A95EAF7DC011C962C931C97F9
:100430001A965C934E931997ED91FC910484F5857F
:10044000E02D60E00994DC01ED91FC910684F785D4
:10045000E02D41E0099581E090E008950895089528
:10046000089580E090E00895809172029091730267
:10047000813523EC920730F40196909373028093B8
:100480007202089510927302109272028091070313
:1004900090910803019690930803809307030895B1
:1004A000FC0123812223B9F0918190956923608317
:1004B000828191E0909355038093770310925603C5
:1004C000109278038CE194E00E94E0010E94310BCD
:1004D000282F30E002C020E030E081E090E0232BC4
:1004E00011F080E090E00895EF92FF920F931F9338
:1004F000CF938C01FC01759684E0C0E060FF02C0E0
:100500009081C92B6695815031968111F7CF41308A
:1005100011F4F8014489F8018585C82BC42B7801B2
:10052000FEE0EF0EF11CF80162896C2BC7010E94FE
:100530005002F801628960956C23C701CF911F9129
:100540000F91FF90EF900C9450020F931F93CF9355
:10055000DF93062F0F70423019F440E0602F10C077
:10056000142F262FEC0130E0B90184E075956795D2
:100570008A95E1F7CE010E947402412F602FCE01CF
:10058000DF91CF911F910F910C947402FC0184852F
:100590008823A9F0218532852115310519F46111CF
:1005A00006C007C02130310521F4611102C08587E2
:1005B00001C015866585CF010E960C9450020895F2
:1005C000833081F028F4813099F08230A1F00895D1
:1005D0008730A9F08830B9F08430D1F48091800060
:1005E0008F7D03C0809180008F7780938000089575
:1005F00084B58F7702C084B58F7D84BD08958091C6
:10060000B0008F7703C08091B0008F7D8093B000E1
:1006100008951F93CF93DF93282F30E0F901EE5810
:10062000FF4F8491F901E255FF4FD491F901E6564D
:10063000FF4FC491CC23C9F0162F81110E94E00214
:10064000EC2FF0E0EE0FFF1FEA57FF4FA591B4919A
:100650008FB7F894111105C09C91ED2FE095E92317
:1006600002C0EC91ED2BEC938FBFDF91CF911F91E6
:100670000895CF93DF9390E0FC01E255FF4F249162
:10068000FC01E656FF4F8491882361F190E0880FCA
:10069000991FFC01E859FF4FC591D491FC01EA571D
:1006A000FF4FA591B491611109C09FB7F89488815B
:1006B000209582238883EC912E230BC0623061F455
:1006C0009FB7F8943881822F809583238883EC919B
:1006D0002E2B2C939FBF06C08FB7F894E8812E2B4A
:1006E00028838FBFDF91CF9108951F920F920FB68D
:1006F0000F9211242F933F938F939F93AF93BF93A8
:100700008091090390910A03A0910B03B0910C030F
:100710003091FE0223E0230F2D3720F40196A11D16
:10072000B11D05C026E8230F0296A11DB11D20931F
:10073000FE028093090390930A03A0930B03B093E6
:100740000C038091FF0290910003A0910103B091EE
:1007500002030196A11DB11D8093FF029093000337
:10076000A0930103B0930203BF91AF919F918F912A
:100770003F912F910F900FBE0F901F9018951F92D1
:100780000F920FB60F9211242F933F934F935F93C5
:100790006F937F938F939F93AF93BF93EF93FF9349
:1007A000E0910503F0910603309709F451C0968D4E
:1007B000A685B785858591FF04C09C91892329F47E
:1007C00047C09C91892309F043C0A389B4899C91B7
:1007D0008589809589238C93868997890197F1F77C
:1007E000608D718DA685B785558538E020E0CB01F9
:1007F0000197F1F7822F90E095958795282F4C91DE
:10080000452309F02068315091F7868D81FD2095B0
:100810008091040390E001968F7399273091030330
:10082000381749F0A0910403B0E0A254BD4F2C93B7
:100830008093040303C0868D8160868F828D938DA3
:100840000197F1F7A389B4899C918589892B8C93B1
:10085000FF91EF91BF91AF919F918F917F916F9198
:100860005F914F913F912F910F900FBE0F901F906E
:100870001895E0910503F0910603E817F90769F46C
:10088000A389B4899C918589809589238C93109242
:1008900006031092050381E0089580E008951F92F9
:1008A0000F920FB60F9211242F933F934F935F93A4
:1008B0006F937F938F939F93AF93BF93EF93FF9328
:1008C0008091B900887F803609F49CC068F5883231
:1008D00009F45BC090F4803109F454C038F48823E3
:1008E00009F4F6C0883009F44DC0F6C0883109F427
:1008F0004CC0803209F45DC0EFC0803409F468C098
:1009000048F4803309F455C0883309F0E5C080937A
:100910005203D8C0803509F44FC0883509F45DC052
:10092000883409F0D9C0D6C0883909F4C7C0A8F402
:10093000883709F467C038F4883609F463C0803713
:1009400009F460C0C9C0883809F4B8C0803909F416
:100950005FC0803809F0C0C05BC0803B09F486C02E
:1009600038F4803A09F466C0883A09F47FC0B4C00C
:10097000803C09F4A7C0883C09F4A4C0883B09F472
:100980008AC0AAC080912F0310C09091510380911A
:100990005003981770F5E091510381E08E0F80931A
:1009A0005103F0E0E05DFC4F80818093BB0085EC5B
:1009B00086C0809352038EC0E091510381E08E0F78
:1009C000809351038091BB00F0E0E05DFC4F808399
:1009D00090915103809150036EC0E091510381E0EA
:1009E0008E0F809351038091BB00F0E0E05DFC4FDF
:1009F00080838091530381116DC081E080932E0329
:100A000084EA61C083E0809354031092BD02CFCF8B
:100A10008091BD02803208F051C0E091BD0281E0BA
:100A20008E0F8093BD028091BB00F0E0E356FD4F36
:100A30008083BDCF85EC8093BC00109254038091DD
:100A4000BD02803230F4E091BD02F0E0E356FD4F8C
:100A500010826091BD0270E0E0919B02F0919C02D7
:100A60008DE992E009951092BD0236C084E0809332
:100A7000540310929A0210929902E0919702F09119
:100A80009802099580919902811105C081E08093B7
:100A9000990210927702E0919A0281E08E0F809382
:100AA0009A02F0E0E958FD4F80818093BB0090915D
:100AB0009A0280919902981708F479CF85E880937B
:100AC000BC000AC085EC8093BC001092540304C0A3
:100AD000109252030E945801FF91EF91BF91AF9184
:100AE0009F918F917F916F915F914F913F912F9146
:100AF0000F900FBE0F901F901895DC01ED91FC91A7
:100B00000684F785E02D40E00994DC01ED91FC912D
:100B10000484F585E02D6FEF09948F929F92AF9238
:100B2000BF92CF92DF92EF92FF920F931F93CF93DA
:100B3000DF93EC01423018F08C8188608C834F8306
:100B40006887222329F0413019F48C8184608C83DA
:100B50000E948D004B015C0184E6C82ED12CE12C53
:100B6000F12C0E948D00DC01CB0188199909AA099A
:100B7000BB09883E9340A105B10558F021E0C21A97
:100B8000D108E108F10888EE880E83E0981EA11CC8
:100B9000B11CC114D104E104F10419F76C8164FDA6
:100BA00031C0E881F9810684F785E02D42E063E0F9
:100BB000CE0109958BE496E40197F1F7E881F9817C
:100BC0000684F785E02D42E063E0CE01099503E558
:100BD00012E0C8010197F1F7E881F9810684F785F1
:100BE000E02D42E063E0CE010995C8010197F1F7DD
:100BF000E881F9810684F785E02D42E062E0CE01CC
:100C0000099517C06062CE010E947D058BE496E4D1
:100C10000197F1F76C816062CE010E947D0503E5CA
:100C200012E0C8010197F1F76C816062CE010E9469
:100C30007D05C8010197F1F76C816062CE010E94C9
:100C40007D058BEE90E00197F1F784E08D836CE0F9
:100C5000CE010E947D0561E0CE010E947D058BE3FF
:100C60009FE10197F1F782E08E8366E0CE010E945A
:100C70007D05CE01DF91CF911F910F91FF90EF90F5
:100C8000DF90CF90BF90AF909F908F900C94850590
:100C9000EF92FF920F931F93CF93DF93EC01062FF8
:100CA000F42EE22E8B85888B1092760210927502BC
:100CB00010925603109278031092540311E010938F
:100CC000530310922E0361E082E10E94090361E068
:100CD00083E10E9409038091B9008E7F8093B9005F
:100CE0008091B9008D7F8093B90088E48093B8002B
:100CF00085E48093BC008889109355038093770323
:100D000010925603109278030E94310B91E08111EA
:100D100090E0998B992329F08CE194E00E9499014D
:100D20008E878989882339F01F861C8260E0CE0176
:100D30000E960E9450022E2D4F2D602FCE01DF9176
:100D4000CF911F910F91FF90EF900C948D051F9202
:100D50000F920FB60F9211242F933F934F935F93EF
:100D60006F937F938F939F93AF93BF93EF93FF9373
:100D7000E0917D03F0917E030995FF91EF91BF9182
:100D8000AF919F918F917F916F915F914F913F9123
:100D90002F910F900FBE0F901F901895CF93C82FD3
:100DA000809174028C1759F0882319F060E00E943A
:100DB000090361E08C2F0E940903C0937402CF9154
:100DC000089580910D0390910E03853691051CF0D6
:100DD00084E690E004C0CC9734F48CE390E09093E8
:100DE0000E0380930D03A0910D03B0910E03A43662
:100DF000B1058CF42FEF33E00E94071624E630E0B3
:100E000040E050E00E94E815DA01C90144E150E0F9
:100E100060E070E009C0A436B10541F444E150E05F
:100E200060E070E08EEF93E00C947A09089592EF01
:100E3000980F8E3008F0892F8770806468E070E02A
:100E400020E030E0A3ECB0E080937C0090917A0049
:100E5000906490937A0090917A0096FDFCCF409137
:100E600078009091790050E0592B240F351FFD0137
:100E70003197F1F76150710939F7C90137FD0796CC
:100E800023E0959587952A95E1F70895CF92DF9213
:100E9000EF92FF920F931F93CF93DF936C017A0130
:100EA0008B01C0E0D0E0CE15DF0589F0D8016D914F
:100EB0008D01D601ED91FC910190F081E02DC601EC
:100EC0000995892B11F47E0102C02196ECCFC70150
:100ED000DF91CF911F910F91FF90EF90DF90CF9016
:100EE0000895FC01538D448D252F30E0842F90E030
:100EF000821B930B541710F0CF9608950197089515
:100F0000FC01918D828D981761F0828DDF01A80F11
:100F1000B11D5D968C91928D9F5F9F73928F90E033
:100F200008958FEF9FEF0895FC01918D828D9817A2
:100F300031F0828DE80FF11D858D90E008958FEFDF
:100F40009FEF0895FC01918D228D892F90E0805CA8
:100F50009F4F821B91098F73992708958FE793E024
:100F60000E94A20721E0892B09F420E0822F089536
:100F7000FC01848DDF01A80FB11DA35ABF4F2C9136
:100F8000848D90E001968F739927848FA689B78905
:100F90002C93A089B1898C9180648C93938D848DDE
:100FA000981306C00288F389E02D80818F7D8083AD
:100FB0000895EF92FF920F931F93CF93DF93EC016D
:100FC00081E0888F9B8D8C8D981305C0E889F98905
:100FD000808185FD24C0F62E0B8D10E00F5F1F4F22
:100FE0000F731127E02E8C8DE8120CC00FB607FC92
:100FF000FACFE889F989808185FFF5CFCE010E947B
:10100000B807F1CF8B8DFE01E80FF11DE35AFF4FBA
:10101000F0820B8FEA89FB898081806207C0EE89AC
:10102000FF896083E889F98980818064808381E019
:1010300090E0DF91CF911F910F91FF90EF90089575
:10104000CF93DF93EC01888D8823C9F0EA89FB896F
:10105000808185FD05C0A889B9898C9186FD0FC066
:101060000FB607FCF5CF808185FFF2CFA889B9893B
:101070008C9185FFEDCFCE010E94B807E7CFDF91BD
:10108000CF91089580E090E0892B29F00E94AE076F
:1010900081110C94000008950E940B18DC01ED9161
:1010A000FC910190F081E02D09946115710579F0B2
:1010B000FB0101900020E9F73197AF01461B570B68
:1010C000DC01ED91FC910280F381E02D099480E038
:1010D00090E008954F925F926F927F92EF92FF920D
:1010E0000F931F93CF93DF93CDB7DEB7A1970FB6C2
:1010F000F894DEBF0FBECDBF7C01FA01CB0119A26F
:10110000223008F42AE08E010F5D1F4F422E512C31
:10111000612C712CBF01A30192010E94C615F90137
:10112000CA01015011096A3014F4605D01C0695CA4
:10113000D8016C93232B242B252B61F7B801C70111
:101140000E945508A1960FB6F894DEBF0FBECDBF22
:10115000DF91CF911F910F91FF90EF907F906F9053
:101160005F904F9008950C9455081F920F920FB600
:101170000F9211242F933F934F935F936F937F931D
:101180008F939F93AF93BF93EF93FF938FE793E07A
:101190000E94B807FF91EF91BF91AF919F918F91FE
:1011A0007F916F915F914F913F912F910F900FBE63
:1011B0000F901F9018951F920F920FB60F92112447
:1011C0002F938F939F93EF93FF93E0918F03F09171
:1011D00090038081E0919503F091960382FD12C007
:1011E0009081809198038F5F8F732091990382176C
:1011F00051F0E0919803F0E0E158FC4F958F809317
:10120000980301C08081FF91EF919F918F912F9161
:101210000F900FBE0F901F901895DC01CB0163E07B
:10122000880F991FAA1FBB1F6A95D1F7009721E06D
:10123000A207B10514F421E00DC053E0B595A795C0
:10124000979587955A95D1F7009721E0A207B105A8
:1012500024F422E020937B0331C043E0B595A795A9
:10126000979587954A95D1F7009721E0A207B10598
:1012700014F423E0EFCF32E0B595A79597958795C5
:101280003A95D1F7009721E0A207B10514F424E0C4
:10129000E1CF22E0B595A795979587952A95D1F747
:1012A000009721E0A207B10514F425E0D3CF85E033
:1012B00080937B038FEF9FEFA0E0B0E02FB72093E8
:1012C0007C03F89490937A0380937903909387003A
:1012D0008093860080917C038FBF80918100887FFE
:1012E000809381009091810080917B03892B809372
:1012F00081000895CF93DF93EC01141615061606AE
:10130000170624F4CB01BA010E940D09219A90918D
:1013100080009068909380002091790330917A0347
:10132000DE010E9407162FB720937C03F894DC019E
:10133000CB012AE0B695A795979587952A95D1F781
:10134000909389008093880080917C038FBF909157
:10135000810080917B03892B80938100DF91CF9165
:1013600008958F929F92AF92BF92CF92DF92EF92A9
:10137000FF920F931F93CF93DF93EC016A017B01E0
:101380009A01AB01C701B6010E949915882319F093
:1013900066E672E027C046015701E894B7F82FEFE0
:1013A0003FEF4FE75FE7C501B4010E949915811136
:1013B0000DC02FEF3FEF4FE75FE7C501B4010E947B
:1013C000151318161CF46AE672E00CC02FEF3FEFFD
:1013D0004FE75FE4C701B6010E94941518168CF41C
:1013E0006EE672E0CE01DF91CF911F910F91FF90D9
:1013F000EF90DF90CF90BF90AF909F908F900C9424
:1014000055082FEF3FEF4FE75FECC701B6010E9491
:10141000151387FDE5CF20E030E0A901C701B60133
:101420000E94151387FF0AC06DE2CE010E944E088C
:101430008C01F7FAF094F7F8F09402C000E010E0A5
:101440002AE037ED43EA5BE3C701B6010E9480144E
:101450006B017C010E9465154B015C010E941A130F
:101460009B01AC01C701B6010E947F146B017C0196
:101470002AE0B501A401CE010E946A08080F191FD5
:101480006EE2CE010E944E08080F191F20E030E0E6
:1014900040E251E4C701B6010E947B134B015C019D
:1014A0000E9465156B01E12CF12C2AE0B701A60121
:1014B000CE010E946A08080F191FC701B6010E94D9
:1014C0001A139B01AC01C501B4010E947F1420E0F6
:1014D00030E040E251E40E947B130E946515AB01AD
:1014E00060E070E02AE0CE010E946A08800F911F40
:1014F000DF91CF911F910F91FF90EF90DF90CF90F0
:10150000BF90AF909F908F900895CF92DF92EF920F
:10151000FF920F931F93CF93DF936B01770FEE082A
:10152000FF08F7FE1BC0EC016DE20E944E088C0123
:1015300044275527BA014C195D096E097F092AE035
:10154000CE010E946A08800F911FDF91CF911F91F9
:101550000F91FF90EF90DF90CF9008952AE0B701B0
:10156000A601DF91CF911F910F91FF90EF90DF9037
:10157000CF900C946A08CF93DF93CDB7DEB728974E
:101580000FB6F894DEBF0FBECDBF1D8290E49E83E0
:1015900024E12F8324E5288719829A8390E19B8395
:1015A00090E59C8390912F04691710F06FEF690FFD
:1015B00040913004262F30E0FE01E20FF31F40314E
:1015C00021F4943011F4918101C09581682F690F45
:1015D000606888E294E028960FB6F894DEBF0FBEEC
:1015E000CDBFDF91CF910C947D05CF92DF92EF922A
:1015F000FF920F931F93CF93DF931F92CDB7DEB768
:10160000162F877028E0829FC0011124682F606424
:1016100088E294E079830E947D0583E790E001975A
:10162000F1F7C12E7981D72E8601085F1F4F8BE914
:10163000E82EF12CF60161916F0188E294E00E949E
:101640002302C7010197F1F7C016D10699F70F9051
:10165000DF91CF911F910F91FF90EF90DF90CF908E
:1016600008952091780390917703213208F04AC0C1
:10167000809154038111FCCF32E03093540331E068
:10168000309353033FEF3093520310925103209352
:101690005003A7E5B3E040E353E0FA013E2F341BCB
:1016A000321718F43D913193F9CF10922F03209106
:1016B0002F03990F922B90932F0390912E0391302B
:1016C00061F410922E0390912F039093BB009091A0
:1016D000BC0093FDF8CF95EC01C095EE9093BC0053
:1016E000909154039230E1F3909152039F3F79F02F
:1016F00080915203803241F080915203803331F067
:1017000084E005C081E003C082E001C083E0109264
:1017100056031092780310925503089584E991E0DE
:10172000909342048093410481E494E00E94390440
:1017300080916004909161040C94A916789484B50A
:10174000826084BD84B5816084BD85B5826085BDBD
:1017500085B5816085BD80916E00816080936E004B
:10176000109281008091810082608093810080913D
:1017700081008160809381008091800081608093EE
:1017800080008091B10084608093B1008091B000AE
:1017900081608093B00080917A00846080937A00A9
:1017A00080917A00826080937A0080917A008160D3
:1017B00080937A0080917A00806880937A001092FA
:1017C000C10061E088E00E94390360E088E00E9487
:1017D0000903109217031092160320E044E064E11D
:1017E00088E294E00E94480688E294E00E94850521
:1017F00008E111E0C0E0B8018C2F0E94F50ACF5F2C
:10180000085F1F4FC630B9F760E171E087E00E94C2
:10181000F50A68E071E086E00E94F50A60E071E098
:101820008CE50E94F50A61E08DE00E94390361E0D9
:101830008BE00E94390361E08CE00E943903109232
:10184000800080E18093810064E170E080E090E0BE
:101850000E940D094FEF5FEFBA0180E090E00E9417
:101860007A0984E392E090937E0380937D0381E084
:1018700080936F009091810080917B03892B8093EE
:101880008100E0918F03F091900382E08083E091EA
:101890008B03F0918C031082E0918D03F0918E0305
:1018A0008FEC808310929703E0919303F09194035F
:1018B000C083E0919103F0919203808180618083E5
:1018C000E0919103F0919203808188608083E091A0
:1018D0009103F0919203808180688083E09191036D
:1018E000F091920380818F7D808310925C0410922E
:1018F0005B0410925A0410925904109258041092EA
:1019000057048DE991E090935E0480935D0490917B
:101910004D04963108F057C02DEB30E03093580459
:10192000209357042BE931E030935A042093590453
:101930002CE231E030935C0420935B04209168003A
:10194000983050F031E09E3008F430E081E001C082
:10195000880F3A95EAF701C084E0822B80936800F3
:10196000983038F09E3040F0963148F020E030E07A
:1019700008C02DE630E005C02BE630E002C02CE6C2
:1019800030E03093550420935404983030F481E0D3
:1019900001C0880F9A95EAF70EC0292F30E09E30DB
:1019A00018F42850310902C02E50310981E001C0DD
:1019B000880F2A95EAF78093560480915D049091F0
:1019C0005E040197F1F780915B0490915C04892B90
:1019D00021F1809105039091060324E08134920760
:1019E000E1F0009711F00E94390480915F048E7F2E
:1019F00080935F04109204031092030381E494E047
:101A00009093060380930503E0915404F0915504EC
:101A1000908180915604892B808362EA71E081E491
:101A200094E00E94550869EA71E081E494E00E9424
:101A300055088AE590E090930E0380930D0360E0D3
:101A400085E00E94390361E086E00E94390360E08E
:101A500086E00E94090360E085E00E94090360E0DF
:101A600080E00E94BB0A6CEA71E088E294E00E9488
:101A7000B30860E084E00E94BB0A66E088E294E07C
:101A80000E94230260E088E00E94BB0A60EB71E0E4
:101A900088E294E00E94B30893E0292E312C09E0FB
:101AA00010E0C4E6D0E081E090E00E941707BC019E
:101AB000990F880B990B0E941C132AE537E348ED18
:101AC0005CE30E947B1326EF38E248E551E40E9474
:101AD0007F144B015C01609320037093210380937A
:101AE00022039093230380E090E00E941707BC013B
:101AF000990F880B990B0E941C1320E030E040EFF7
:101B00005CE30E947B132B013C01609324037093E0
:101B10002503809326039093270382E090E00E94A0
:101B20001707BC01990F880B990B0E941C1320E02A
:101B300030E040EF5CE30E947B136B017C0160931B
:101B400018037093190380931A0390931B03A30146
:101B50009201C501B4010E947B134B015C016093AB
:101B60001C0370931D0380931E0390931F038091A9
:101B70001603909117038130910569F024F4892BA5
:101B800009F4FDC048C18230910509F455C003979E
:101B900009F4A4C040C120E030E040E85FE3C501A3
:101BA000B4010E94151387FF09C010921703109209
:101BB000160310934B0100934A012DC120E030E041
:101BC00048E551E4C701B6010E94941518162CF49B
:101BD000309217032092160322C120E030E040EA41
:101BE00050E4C501B4010E94151387FD9CC020E09C
:101BF00030E040E251E4C701B6010E947B136B0163
:101C00007C0120E030E040E251E4C301B2010E94D7
:101C1000EC149B01AC01C701B6010E94EC1420E05A
:101C200030E040EA50E40E9480140E945E157093F8
:101C30000E0360930D039CC020E030E040E85FE3BA
:101C4000C501B4010E94151387FDAFCF2AE939E918
:101C500049E551E4C701B6010E94941518160CF429
:101C6000B7CF20E030E040EA50E4C501B4010E9463
:101C7000151387FF03C081E090E0C7C0A501940160
:101C800060910F03709110038091110390911203E2
:101C90000E94941587FD0BC08091480190914901E5
:101CA00091958195910990934901809348012091E4
:101CB0000D0330910E038091480190914901820FEC
:101CC000931F90930E0380930D0380920F039092C5
:101CD0001003A0921103B092120329C020E030E05B
:101CE00040E85FE3C501B4010E94151387FF0DC0F2
:101CF000109217031092160310934B0100934A01A0
:101D000060E088E00E94090312C02AE939E949E548
:101D100051E4C701B6010E94941518165CF460E006
:101D200088E00E940903D0930E03C0930D030E9424
:101D3000E10675C02AE939E949E551E4C701B60170
:101D40000E94151387FF6BC0D0930E03C0930D0341
:101D50000E94E10661E088E00E94090320E030E093
:101D600048E551E4C701B6010E94151387FF57C02B
:101D700082E090E0909317038093160350C060E0D8
:101D800088E00E94090380914A0190914B01181646
:101D9000190634F4019790934B0180934A013FC098
:101DA0002AE939E949E551E4C701B6010E949415D1
:101DB00018166CF4A7019601C301B2010E94941594
:101DC00018162CF4309217032092160322C020E03C
:101DD00030E040E351E4C701B6010E9494151816A3
:101DE000F4F42AE939E949E551E4C701B6010E9452
:101DF000151387FF14C0A7019601C301B2010E9409
:101E00009415181664F482E090E090931703809381
:101E1000160361E001C060E088E00E940903409180
:101E200007035091080360E070E02AE08FE793E039
:101E30000E946A0864EB71E08FE793E00E94B308A8
:101E40006BEB71E08FE793E00E94B308809116037B
:101E5000909117038130910519F467EC71E00FC080
:101E6000009719F46DEC71E00AC08230910519F405
:101E700063ED71E004C0039731F469ED71E08FE721
:101E800093E00E94B30864EB71E08FE793E00E9457
:101E9000B3086FED71E08FE793E00E94B308809183
:101EA000160390911703892B19F460E070E004C0C9
:101EB00060910D0370910E038FE793E00E94850AF5
:101EC00064EB71E08FE793E00E94B30866EE71E087
:101ED0008FE793E00E94B3084091200350912103C3
:101EE00060912203709123038FE793E00E94B10970
:101EF00064EB71E08FE793E00E94B30869EF71E053
:101F00008FE793E00E94B30840912403509125038A
:101F100060912603709127038FE793E00E94B10937
:101F200064EB71E08FE793E00E94B3086CE072E02D
:101F30008FE793E00E94B30840912403509125035A
:101F400060912603709127038FE793E00E94B10907
:101F500064EB71E08FE793E00E94B3086DE172E0FB
:101F60008FE793E00E94B308409118035091190342
:101F700060911A0370911B038FE793E00E94B109EF
:101F800064EB71E08FE793E00E94B30860E372E0D6
:101F90008FE793E00E94B30820E030E040E85FE381
:101FA00060911C0370911D0380911E0390911F038B
:101FB0000E94151387FF12C0FF24F39420E030E045
:101FC00048E351E4609118037091190380911A035A
:101FD00090911B030E94941518160CF0F12C80911F
:101FE00015038F1531F0F09215036F2D86E00E94D6
:101FF0000903C0901803D0901903E0901A03F090E1
:102000001B032AE939E941E651E4C701B6010E9400
:102010009415181614F48CE00DC026E636E64EE34F
:1020200051E4C701B6010E949415181614F48BE010
:1020300001C08DE00E94CE06E7E7F0E08491E3EB7B
:10204000F0E0F490EFE9F0E0E490EE20A1F08111EF
:102050000E94E002EE2DF0E0EE0FFF1FE057FF4F71
:10206000A591B4918C91F82231E020E009F430E0A0
:10207000832F922F02C080E090E090932D038093F5
:102080002C0320914C0130E028173907C1F021E0E2
:10209000009709F420E020934C01019729F488E28D
:1020A00094E00E9485050BC0E0912804F09129047A
:1020B0000484F585E02D60E088E294E00995809144
:1020C0002C0390912D03019799F42FB7F8948091E8
:1020D000090390910A03A0910B03B0910C032FBF49
:1020E0008093280390932903A0932A03B0932B0392
:1020F00061E080E00E94BB0A4091240350912503D7
:10210000609126037091270388E294E00E94B10950
:1021100063E372E088E294E00E94B30862E080E04A
:102120000E94BB0A40912003509121036091220339
:102130007091230388E294E00E94B10966E372E0A3
:1021400088E294E00E94B30863E080E00E94BB0A4A
:1021500040911C0350911D0360911E0370911F0359
:1021600088E294E00E94B10968E372E088E294E0BA
:102170000E94B30861E088E00E94BB0A4091180306
:102180005091190360911A0370911B0388E294E047
:102190000E94B10962E088E00E94BB0A80911603A8
:1021A000909117038130910519F467EC71E019C023
:1021B000009719F46DEC71E014C08230910519F4A8
:1021C00063ED71E00EC0039781F465EB71E088E286
:1021D00094E00E94B30862E088E00E94BB0A69EDC7
:1021E00071E088E294E00E94B3082DEC3CEC44E3FB
:1021F00051E4609118037091190380911A03909132
:102200001B030E947F1420E030E048EC52E40E945F
:102210007B1320E333E343EB5FE30E94EC140E9463
:102220005E156536710514F064E670E07B0177FF9A
:1022300002C0E12CF12C60E08CE00E94BB0AC701D7
:1022400064E170E00E94B21588E294E00E944E08BA
:1022500063E088E00E94BB0AC7016AE070E00E9468
:10226000B215B701681B790B88E294E00E94850AD9
:102270006BE372E088E294E00E94B30860E08FE0D4
:102280000E94BB0A6FE372E088E294E00E94B30808
:1022900060E083E10E94BB0A67E088E294E00E946C
:1022A000230261E08FE00E94BB0A67EB71E088E2E5
:1022B00094E00E94B30861E08FE00E94BB0A809125
:1022C000160390911703892B19F460E070E004C0A5
:1022D00060910D0370910E0388E294E00E94850ADC
:1022E00063E472E088E294E00E94B30862E08FE069
:1022F0000E94BB0A66E472E088E294E00E94B308A0
:1023000063E08FE00E94BB0A80911503882319F0D7
:102310006BE472E002C060E572E088E294E00E9443
:10232000B3088091130390911403019690931403C2
:102330008093130365E070E00E949E15FC01ED5A46
:10234000FE4F608188E294E00E944E082FB7F89417
:102350008091090390910A03A0910B03B0910C03A3
:102360002FBF409128035091290360912A03709157
:102370002B03841B950BA60BB70B89399A43A10538
:10238000B10528F488E294E00E9485050BC0E09135
:102390002804F09129040484F585E02D60E088E2AA
:1023A00094E009950E9442087ECB1092820310921D
:1023B000810388EE93E0A0E0B0E0809383039093E4
:1023C0008403A0938503B09386032CE531E030931A
:1023D000800320937F0325EC30E030938C0320931F
:1023E0008B0324EC30E030938E0320938D0320EC9C
:1023F00030E03093900320938F0321EC30E0309352
:1024000092032093910322EC30E0309394032093C5
:10241000930326EC30E030939603209395031092BB
:1024200098031092990310929A0310929B031092B2
:102430001F0410921E048093200490932104A09303
:102440002204B09323048EE691E090931D048093C0
:102450001C041092610410926004109263041092A4
:102460006204109265041092640461E170E080E0FF
:1024700090E00E9441170097A1F09093610480932F
:10248000600420E130E030936304209362042091E3
:10249000640430916504232B09F0BCC0FC01108258
:1024A000B9C08091600490916104009711F00E947E
:1024B000A9161092610410926004109265041092A3
:1024C0006404109263041092620410924404109207
:1024D000430488EE93E0A0E0B0E08093450490933D
:1024E0004604A0934704B093480484E991E0909394
:1024F00042048093410410925804109257041092A1
:102500005A041092590410925C0410925B041092C9
:102510005E0410925D0460915F046E7F6D7F609336
:102520005F046695617081E0682783E00E9409037B
:1025300061E083E00E943903E1EBF0E0E491E09395
:102540005104EDE9F0E0E491F0E0EE0FFF1FEA57EF
:10255000FF4F85919491909353048093520460E0CF
:1025600082E00E94390380915F0481FD04C061E034
:1025700082E00E94090382E080934D04E0EBF0E0EA
:10258000E491E0934E04ECE9F0E0E491F0E0EE0F2A
:10259000FF1FE057FF4F2591349130935004209353
:1025A0004F0410922B0410922A0420E831E030935B
:1025B000290420932804109238049FEF9093370445
:1025C000109236041092390498E3909333041092D9
:1025D000340410923504109232041092310494E0C5
:1025E00090933A0480933B0481E080933C0480E123
:1025F00080933D0480E280933E0480E480933F0416
:1026000080E88093400441E050E063E088E294E099
:102610000C940F0220E130E03093650420936404B1
:1026200065E572E00E94191850CF0E94571308F414
:1026300081E00895E89409C097FB3EF49095809559
:10264000709561957F4F8F4F9F4F9923A9F0F92F78
:1026500096E9BB279395F695879577956795B795F6
:10266000F111F8CFFAF4BB0F11F460FF1BC06F5FDC
:102670007F4F8F4F9F4F16C0882311F096E911C0EE
:10268000772321F09EE8872F762F05C0662371F00F
:1026900096E8862F70E060E02AF09A95660F771F23
:1026A000881FDAF7880F9695879597F90895990FFF
:1026B0000008550FAA0BE0E8FEEF16161706E8070C
:1026C000F907C0F012161306E407F50798F0621B2D
:1026D000730B840B950B39F40A2661F0232B242B02
:1026E000252B21F408950A2609F4A140A6958FEF21
:1026F000811D811D08950E948E130C94FF130E946A
:10270000F11338F00E94F81320F0952311F00C9487
:10271000E8130C94EE1311240C9433140E9410143B
:1027200070F3959FC1F3950F50E0551F629FF00124
:10273000729FBB27F00DB11D639FAA27F00DB11D3D
:10274000AA1F649F6627B00DA11D661F829F2227C6
:10275000B00DA11D621F739FB00DA11D621F839F4D
:10276000A00D611D221F749F3327A00D611D231F23
:10277000849F600D211D822F762F6A2F11249F5771
:1027800050409AF0F1F088234AF0EE0FFF1FBB1F74
:10279000661F771F881F91505040A9F79E3F510533
:1027A00080F00C94E8130C9433145F3FE4F3983EEC
:1027B000D4F3869577956795B795F795E7959F5FDD
:1027C000C1F7FE2B880F911D9695879597F908956F
:1027D00097F99F6780E870E060E008959FEF80ECD4
:1027E000089500240A941616170618060906089577
:1027F00000240A9412161306140605060895092EDD
:102800000394000C11F4882352F0BB0F40F4BF2B4B
:1028100011F460FF04C06F5F7F4F8F4F9F4F08958B
:1028200057FD9058440F551F59F05F3F71F0479581
:10283000880F97FB991F61F09F3F79F08795089566
:10284000121613061406551FF2CF4695F1DF08C085
:10285000161617061806991FF1CF869571056105A2
:1028600008940895E894BB2766277727CB0197F94A
:1028700008952F923F924F925F926F927F928F9224
:102880009F92AF92BF92CF92DF92EF92FF920F93FF
:102890001F93CF93DF93CDB7DEB7CA1BDB0B0FB609
:1028A000F894DEBF0FBECDBF09942A8839884888C6
:1028B0005F846E847D848C849B84AA84B984C8845C
:1028C000DF80EE80FD800C811B81AA81B981CE0F53
:1028D000D11D0FB6F894DEBF0FBECDBFED01089538
:1028E000A29FB001B39FC001A39F700D811D112451
:1028F000911DB29F700D811D1124911D0895505896
:10290000BB27AA270E9497140C94FF130E94F1136F
:1029100038F00E94F81320F039F49F3F19F426F4A0
:102920000C94EE130EF4E095E7FB0C94E813E92FFA
:102930000E94101458F3BA176207730784079507AB
:1029400020F079F4A6F50C9432140EF4E0950B2ED9
:10295000BA2FA02D0B01B90190010C01CA01A001F1
:102960001124FF27591B99F0593F50F4503E68F14C
:102970001A16F040A22F232F342F4427585FF3CF8D
:10298000469537952795A795F0405395C9F77EF45E
:102990001F16BA0B620B730B840BBAF09150A1F0A7
:1029A000FF0FBB1F661F771F881FC2F70EC0BA0F2D
:1029B000621F731F841F48F4879577956795B795B5
:1029C000F7959E3F08F0B0CF9395880F08F09927B0
:1029D000EE0F9795879508950E9400150C94FF13AC
:1029E0000E94F81358F00E94F11340F029F45F3F61
:1029F00029F00C94E81351110C9433140C94EE1339
:102A00000E94101468F39923B1F3552391F3951B99
:102A1000550BBB27AA2762177307840738F09F5FFF
:102A20005F4F220F331F441FAA1FA9F335D00E2E6C
:102A30003AF0E0E832D091505040E695001CCAF7D9
:102A40002BD0FE2F29D0660F771F881FBB1F26179C
:102A500037074807AB07B0E809F0BB0B802DBF0173
:102A6000FF2793585F4F3AF09E3F510578F00C9442
:102A7000E8130C9433145F3FE4F3983ED4F3869547
:102A800077956795B795F7959F5FC9F7880F911D63
:102A90009695879597F90895E1E0660F771F881F4F
:102AA000BB1F621773078407BA0720F0621B730B02
:102AB000840BBA0BEE1F88F7E09508950E94651508
:102AC0006894B1110C94331408950E94181488F07E
:102AD0009F5798F0B92F9927B751B0F0E1F0660FE2
:102AE000771F881F991F1AF0BA95C9F714C0B13023
:102AF00091F00E943214B1E008950C943214672FC3
:102B0000782F8827B85F39F0B93FCCF38695779551
:102B10006795B395D9F73EF490958095709561953A
:102B20007F4F8F4F9F4F08950E94571308F48FEFE8
:102B300008950E945713880B990B0895AA1BBB1B7D
:102B400051E107C0AA1FBB1FA617B70710F0A61BAD
:102B5000B70B881F991F5A95A9F780959095BC01CE
:102B6000CD01089597FB072E16F4009407D077FD4A
:102B700009D00E949E1507FC05D03EF490958195E2
:102B80009F4F0895709561957F4F0895A1E21A2E89
:102B9000AA1BBB1BFD010DC0AA1FBB1FEE1FFF1F01
:102BA000A217B307E407F50720F0A21BB30BE40B51
:102BB000F50B661F771F881F991F1A9469F7609598
:102BC0007095809590959B01AC01BD01CF01089552
:102BD000052E97FB1EF400940E94FF1557FD07D0A9
:102BE0000E94C61507FC03D04EF40C94FF155095B7
:102BF0004095309521953F4F4F4F5F4F08959095E9
:102C00008095709561957F4F8F4F9F4F08950E94DB
:102C10007014B7FF0895821B930B0895EE0FFF1FEA
:102C20000590F491E02D0994CF93DF9382309105C4
:102C300010F482E090E0E0916804F091690420E0F3
:102C400030E0C0E0D0E0309711F140815181481769
:102C50005907C0F04817590761F482819381209782
:102C600019F09B838A832BC0909369048093680436
:102C700026C02115310519F04217530718F49A019F
:102C8000BE01DF01EF010280F381E02DDCCF2115D1
:102C9000310509F1281B390B2430310590F41296C7
:102CA0008D919C9113976115710521F0FB01938320
:102CB000828304C09093690480936804FD01329676
:102CC00044C0FD01E20FF31F81939193225031091B
:102CD0002D933C933AC02091660430916704232BD6
:102CE00041F420914F0130915001309367042093BB
:102CF000660420914D0130914E012115310541F4BA
:102D00002DB73EB74091510150915201241B350B14
:102D1000E0916604F0916704E217F307A0F42E1B1C
:102D20003F0B2817390778F0AC014E5F5F4F24172F
:102D3000350748F04E0F5F1F5093670440936604B9
:102D40008193919302C0E0E0F0E0CF01DF91CF9159
:102D500008950F931F93CF93DF93009709F48CC0CE
:102D6000FC01329713821282009168041091690469
:102D70000115110581F420813181820F931F20916B
:102D80006604309167042817390779F5F0936704D2
:102D9000E093660471C0D80140E050E0AE17BF0771
:102DA00050F412962D913C911397AD0121153105E8
:102DB00009F1D901F3CF9D01DA01338322836081C8
:102DC0007181860F971F8217930769F4EC012881A0
:102DD0003981260F371F2E5F3F4F318320838A8131
:102DE0009B8193838283452B29F4F0936904E093BC
:102DF000680442C01396FC93EE931297ED0149913B
:102E000059919E01240F351FE217F30771F4808159
:102E10009181840F951F029611969C938E938281C7
:102E2000938113969C938E931297E0E0F0E0D80183
:102E300012968D919C911397009719F0F8018C01CF
:102E4000F6CF8D919C9198012E5F3F4F820F931F7B
:102E500020916604309167042817390769F4309788
:102E600029F4109269041092680402C0138212823D
:102E70001093670400936604DF91CF911F910F9127
:102E80000895A0E0B0E0E7E4F7E10C943D14EC0114
:102E9000009721F4CB010E941416B8C0FC01E60F84
:102EA000F71F9C0122503109E217F30708F4ACC068
:102EB000D9010D911C91119706171707B0F0053035
:102EC000110508F49FC0C80104978617970708F4F6
:102ED00099C002501109061B170B019311936D93B2
:102EE0007C93CF010E94A9168DC05B01A01AB10A84
:102EF0004C01800E911EA0916804B091690440E0DD
:102F000050E0E12CF12C109709F44AC0A815B9053E
:102F1000D1F56D907C901197630182E0C80ED11CB1
:102F2000CA14DB0480F1A3014A195B096A0182E03B
:102F3000C80ED11C1296BC9012971396AC91B5E0B6
:102F4000CB16D10440F0B282A38351834083D901D0
:102F50006D937C930AC00E5F1F4FC301800F911FBA
:102F6000F90191838083EB2DFA2FE114F10431F004
:102F7000D7011396FC93EE93129744C0F093690423
:102F8000E09368043FC08D919C91119748175907B1
:102F900008F4AC017D0112960D90BC91A02DB3CF29
:102FA000809166049091670488159905E1F44617AD
:102FB0005707C8F480914D0190914E01009741F45C
:102FC0008DB79EB74091510150915201841B950BD2
:102FD000E817F907C8F4F0936704E0936604F90171
:102FE000718360830FC0CB010E9414167C0100978F
:102FF00059F0A801BE010E941018CE010E94A91626
:10300000C70104C0CE0102C080E090E0CDB7DEB7BA
:10301000EEE00C94591481E090E0F8940C942018A0
:10302000FB01DC0102C001900D9241505040D8F7E5
:103030000895FB01DC0101900D920020E1F7089555
:1030400010E0C2E6D0E004C0FE010E940E162196F8
:0A305000C336D107C9F7F894FFCF8B
:10305A0010100808040402021F151F151F151F006F
:10306A001D151515151515170E1B11111111111F07
:10307A000E1B111111111F1F0E1B1111111F1F1FE2
:10308A000E1B111F1F1F1F1F0E1B1F1F1F1F1F1F7E
:10309A000E1F1F1F1F1F1F1F010009000100006ACA
:1030AA000480002A2A2A202000000000D9074607A7
:1030BA0071072008A2078007940700000000E001BA
:1030CA00B00131028A01A80199018B0100000000B8
:1030DA00230246073102300248060F02C602A50241
:1030EA0000000000CB0046073102CA001F01370169
:1030FA00B20041542B525354000D0A00534F4C0056
:10310A004241540020202020202000436861726739
:10311A00696E67203D20006F6E202020006F666672
:10312A0020200062756C6B2000666C6F6174007001
:10313A00776D203D200043757272656E7420287089
:10314A00616E656C29203D2000566F6C746167655D
:10315A00202870616E656C29203D2000506F7765CC
:10316A0072202870616E656C29203D2000426174CE
:10317A007465727920566F6C74616765203D200012
:10318A000A0D00562000410057200025202000503B
:10319A00574D002520004C6F6164004F6E202000BF
:1031AA004F6666200044504B38524D5446593242BD
:1031BA003158434146006E616E00696E66006F7653
:0231CA0066009D
:00000001FF
